:020000041000EA
:1010000020050020191000100000000091100010B1
:1010100000040100000000801049114A114B00F04B
:1010200016F8114880471149114A124B00F00FF889
:101030001149124A124B00F00AF81249124A0020D4
:10104000521A02DD043A8850FCDC104880479B1A93
:1010500003DD043BC858D050FBDC7047ACA5001042
:101060000C0000201C01002095100010BCA60010F0
:1010700020050020A00600203CA80010A0060020AB
:10108000A0060020A00600202C090020254E0010FC
:10109000FEE7000080B500AF03F062FD03F0A6FD9F
:1010A000BD4680BD80B500AF124B1A68FF231B02FE
:1010B00013401A0A104B1A600E4B1B68FF221A408D
:1010C0000E4B1A600C4B1B68002B0ED00A4B1B6892
:1010D0001A020A4B1B68D3180948191C04F09CF823
:1010E000031C5A00074B1A6002E0064B064A1A60BE
:1010F000BD4680BD00030140A0060020A4060020DC
:10110000000024F4FC3F00200048E80190B585B0C1
:1011100000AFF8607A600B23FB180A1C1A700B23CF
:10112000FB181B789B08DBB2181C0B23FB181B78E1
:101130009B08DBB21A1CFB6804329200D3580B22C6
:10114000BA18127803210A40D200111CF8228A40F2
:10115000D2431A40111CFB68021D9200D150FB685B
:101160005B6F0B22BA1812785200111C03228A40BE
:10117000D2431A40FB685A670B23FB181B78DB0825
:10118000DBB2181C0B23FB181B78DB08DBB21A1C24
:10119000FB6810329200D3580B22BA18127807213C
:1011A0000A409200111C04228A40D2431A40111CAA
:1011B000FB68021C10329200D1500B23FB181B78E5
:1011C000DB08DBB2181C0B23FB181B78DB08DBB237
:1011D0001A1CFB6810329200D2587B685B781C1C8A
:1011E0000B23FB181B7807210B409B009C40231C02
:1011F0001A43111CFB68021C10329200D150FB688C
:10120000204A93420BD1FB681B6E0B22BA1812784E
:10121000012191400A1CD2431A40FB681A667B6880
:101220001B78DBB25BB2002B07DA7B685A680B23B2
:10123000FB181B789A40FB685A600B23FB181B783D
:101240009B08DBB2181C0B23FB181B789B08DBB236
:101250001A1CFB6804329200D2587B681B781C1C55
:101260000B23FB181B7803210B40DB009C40231C45
:101270001A43111CFB68021D9200D150BD4605B0F7
:1012800090BDC0460002044080B500AF024BC322AF
:101290005A62BD4680BDC0460000014080B500AF27
:1012A000054BC0225A62C046034B5B6A04221340BE
:1012B000FAD1BD4680BDC0460000014080B582B075
:1012C00000AF7860FFF7EAFF0C4A0C4B1B680C4933
:1012D00019407B689B6819437B685B680B4313600C
:1012E000FFF7D2FF7B685B781A1C7B681B78101CA9
:1012F000191C00F039F8BD4602B080BD0003014062
:10130000FFFFF0FF80B582B000AF021CBB1D1A804A
:10131000FFF7C4FF094B094A1169BA1D12880A4335
:101320001A61C046054B1A688023DB051340F9D1CA
:10133000FFF7AAFFBD4602B080BDC04600030140D2
:1013400080B582B000AF021CBB1D1A80054B9B68A4
:10135000BA1D128813405A1E9341DBB2181CBD46B9
:1013600002B080BD0003014080B584B000AF78605A
:101370003960FFF793FF214B1A68FF231B021340CC
:101380001B0AFB601D4B1D4A12681D4911403A683B
:101390000A431C490A431A60C046184B1A68802346
:1013A000DB051340F9D1FA687B689A4206D8FA68DF
:1013B0007B68101C191C00F053F805E0FA687B6884
:1013C000101C191C00F022F80C4B0C4A12680E4934
:1013D00011407A6812020A430A490A431A60C04659
:1013E000064B1A688023DB051340F9D1FFF74CFF49
:1013F000FFF758FEBD4604B080BDC0460003014063
:1014000000FF0FC00000F03FFF000FC080B582B0AA
:1014100000AF7860396014E07B689B087B600D4BFF
:101420000C4A12680C4911407A6812020A430B49AF
:101430000A431A60C046074B1A688023DB05134035
:10144000F9D13B689A007B689A42E5D3BD4602B069
:1014500080BDC04600030140FF000FC00000F03F08
:1014600080B582B000AF7860396019E07B68002BEE
:1014700001D101237B607B689B007B600C4B0C4A95
:1014800012680C4911407A6812020A430A490A4359
:101490001A60C046064B1A688023DB051340F9D159
:1014A0007B689A003B689A42E0D3BD4602B080BD9B
:1014B00000030140FF000FC00000F03F80B500AF07
:1014C000024B1B68181CBD4680BDC046FC3F002077
:1014D00080B582B000AF78607B6880225200DA600D
:1014E000BD4602B080BDC04680B582B000AF786016
:1014F0007B68044A934202D10420FFF703FFBD46F4
:1015000002B080BD0000044880B582B000AF7860B2
:101510007B68181CFFF7E8FFBD4602B080BDC046DF
:1015200080B584B000AF78600A1CFB1C1A707B6821
:10153000181CFFF7E9FF7B68181CFFF7C9FF7B68E1
:101540001B68FB60FB68074A1340FB60FB1C1B78B1
:101550009B03FA681343FB607B68FA681A60BD4618
:1015600004B080BDFF3FFFFF80B582B000AF786060
:1015700039603B681A687B685A613B685B799B06F7
:10158000DB0FDBB21A057B685A603B681B791B07CF
:101590001B0FDBB21A1C7B685A623B685B791B0726
:1015A0001B0FDBB21A1C7B681A623B685B79DB0697
:1015B000DB0FDBB21A1C7B689A613B681B791B0648
:1015C0001B0FDBB21A1C7B68DA62BD4602B080BD1D
:1015D00080B586B000AF7860081C111CFB1C021C93
:1015E0001A70BB1C0A1C1A70FB1C1B780B2B20D812
:1015F0009A00204BD3181B689F4603233B610023AE
:101600007B611BE00C233B6102237B6116E0C0235E
:101610009B003B6108237B6110E0C0231B013B6101
:101620000A237B610AE0C0239B013B610C237B61A1
:1016300004E000233B6100237B61C0463B69002B33
:1016400014D07B68A8229B58FB603B69DA43FB6897
:101650001340FB60BB1C1A787B699A40131CFA6824
:101660001343FB607B68A821FA685A50BD4606B058
:1016700080BDC046FCA0001080B582B000AF78608D
:10168000081C111CFB1C021C1A70BB1C0A1C1A70C3
:101690007B685B6FFA1C12785200111C03228A408F
:1016A000D2431A407B685A677B685A6FBB1C1B7811
:1016B000F91C097849008B401A437B685A67BD467C
:1016C00002B080BD80B582B000AF78607B689B6B54
:1016D000DBB27F229343DBB2181CBD4602B080BD53
:1016E00080B582B000AF786039607B683A68DA64B0
:1016F000BD4602B080BDC04680B586B000AFF86080
:10170000B960FB1D1A7010237B61FB68181C00F088
:10171000AFF8BB681B7A002B02D0BB681B7A7B61D9
:10172000FB1D1B78002B16D0BB681B79002B09D042
:10173000BB681B68191C7B69FA68101C1A1C00F036
:1017400039F908E0BB681A68F9687B69081C111C44
:101750001A1C00F0B5F8BB68DB79013B5A007B69C5
:101760005B0801331B021343194A1A43FB68DA630F
:10177000BB685B79013B1B06812252001A43FB6860
:101780005A63BB689B79002B09D0FB685A6BBB6816
:101790009B79013B1B041A43FB685A6308E0FB6812
:1017A0005A6BBB685B79013B1B041A43FB685A63A5
:1017B000FB68A022D2009A63FB6801225242DA64DD
:1017C000BB685B891A1CFB681A64BD4606B080BD05
:1017D0000100030080B582B000AF78600A1CBB1C1A
:1017E0001A807A6884235B00D258E023DB0413401C
:1017F00014D1C0467B68181CFFF764FF031E802BC2
:10180000F8D07A6880239B01101C191CFFF768FF31
:10181000BB1C1A887B6880215A5005E0BB1C1988C4
:101820007A68C0235B00D150BD4602B080BDC0467F
:1018300080B584B000AF78607A6886235B00D258A8
:10184000E023DB04134005D17B685A6D0E23FB189F
:101850001A8006E07A688E235B00D2580E23FB18AC
:101860001A800E23FB181B88181CBD4604B080BDCF
:1018700080B582B000AF78607A689023DB059A4229
:1018800003D07B680C4A934203D10C4B181C00F028
:10189000FBF97B680322DA60C0467B68DB680122C3
:1018A0001340FAD07B681B6C0F2293431A1C7B6891
:1018B0001A64BD4602B080BD00020048080000481E
:1018C00080B58EB000AFF860B9607A60BB68632BFA
:1018D00060D97B68002B5DD0FFF7F0FD031C181C5E
:1018E000642103F099FC031C3B62BB68181C642153
:1018F00003F092FC031CBB608023DB00FB6201232E
:10190000BB622A4B7B628023DB003B6325E03B6AA2
:101910003A6B5A43111CBB687A685343081C191C64
:1019200003F07AFC031CFB61FB699B0ABB61FB694A
:101930009B059B0D7B61BA698023DB009A4209D825
:101940007A697B6A9A4205D27B697B62BB69BB621A
:101950003B6BFB623B6B013B3B633B6B002BD6D18C
:10196000FB6A013B802212021A43FB681A61FB6882
:101970005B690F4A1A407B68013B9B021A43BB6AB2
:10198000013B1B041A43FB685A613723FB180022F2
:101990001A7003E03723FB1801221A703723FB1853
:1019A0001B78181CBD460EB080BDC046FF0300006A
:1019B000EF8000FC80B58CB000AFF860B9607A6051
:1019C000FFF77CFD031C3B62BB687A685343FB61F5
:1019D0000123FB623A6AFB699A4262DD386AF9695F
:1019E00003F0AAFC031CBB620FE0FB6A0133FB623D
:1019F000BB687A6853431A1CFB6A5343FB61386A1D
:101A0000F96903F099FC031CBB62BB6A2A4A934242
:101A1000EBD8396A7B68BA6A5343FA6A5343081CA5
:101A2000191C03F0F9FB031CBB61396ABB6A013363
:101A30007A685343FA6A5343081C191C03F0ECFB01
:101A4000031C7B61BA687B69D31AD9175A184A40BC
:101A5000B968BB69CB1AD9175B184B409A4202DAB6
:101A6000BB6A0133BB62BB6A8022D200D31ABB625D
:101A7000BB6A8022D2011A43FB681A61FB685B696A
:101A80000E4A1A407B68013B9B021A43FB6A013BEA
:101A90001B041A43FB685A612723FB1800221A70A3
:101AA00003E02723FB1801221A702723FB181B7859
:101AB000181CBD460CB080BDFE030000EF8000FC8A
:101AC00080B584B000AFF860B9603B60FB1D1A7050
:101AD000FA6884235B00D3580E4A1340191CFA6835
:101AE00084235B00D150FA6884235B00D3580A4AF0
:101AF0001A403B681902BB681943FB1D1B781B0683
:101B00000B431A43111CFA6884235B00D150BD4675
:101B100004B080BDFFFFFFF8C0C0FFF880B584B0FF
:101B200000AFF860B9603B60FB1D1A70FA6886234D
:101B30005B00D358104A1340191CFA6886235B00D7
:101B4000D150FA6886235B00D3580C4A1A403B6890
:101B50001902BB681943FB1D1B781B060B4313437B
:101B6000802252051A43111CFA6886235B00D1506B
:101B7000BD4604B080BDC046FFFFFFF8C0C0FFEF08
:101B800080B584B000AFF8607A600B23FB180A1CA4
:101B90001A70FA6886235B00D358064A1A407B689D
:101BA0001B021A43111CFA6886235B00D150BD4604
:101BB00004B080BDFFC0FFFF80B584B000AFF86007
:101BC0007A600B23FB180A1C1A70FB689B690B22B6
:101BD000BA181278072191400A1CD2431A400B23ED
:101BE000FB181B78796899400B1C1A43FB689A61B3
:101BF000BD4604B080BDC04680B584B000AFF8607B
:101C00007A600B23FB180A1C1A70FA6884235B00A5
:101C1000D3580B22BA181278072191400A1CD243DC
:101C20001A400B23FB181B78796899400B1C1A4348
:101C3000111CFA6884235B00D150BD4604B080BDFE
:101C400080B584B000AFF8607A600B23FB180A1CE3
:101C50001A70FA6886235B00D3580B22BA181278E0
:101C6000072191400A1CD2431A400B23FB181B7812
:101C7000796899400B1C1A43111CFA6886235B0093
:101C8000D150BD4604B080BD80B582B000AF786051
:101C90007B68074A934208D10820FFF733FBC04610
:101CA0000820FFF74DFB031EFAD1BD4602B080BDF0
:101CB0000800004880B584B000AF7860144B1B6802
:101CC000002B02D1124B134A1A60114B1B68FB60A8
:101CD0007B680333032293437B600D4B1A687B6858
:101CE000D2180D4B9A4207D2094B1A687B68D2185A
:101CF000074B1A60FB6806E003F02EFC031C0C2265
:101D00001A6001235B42181CBD4604B080BDC0466A
:101D1000A806002030090020FC3F002080B582B0DA
:101D200000AF786039607B681A6C3B681A437B6847
:101D30001A64BD4602B080BD80B582B000AF786045
:101D400039607B681B6C3A68D2431A407B681A641E
:101D5000BD4602B080BDC04680B582B000AF78609D
:101D60007B689B6BDBB27F229343DBB2181CBD46C2
:101D700002B080BD80B582B000AF786039603B684A
:101D8000802252029A407B689A66BD4602B080BDAE
:101D900080B582B000AF786039607A6884235B00D8
:101DA000D2583B681A43111C7A6884235B00D150D7
:101DB000BD4602B080BDC04680B582B000AF78603D
:101DC00039607A6884235B00D3583A68D2431A405A
:101DD000111C7A6884235B00D150BD4602B080BDDF
:101DE00080B582B000AF78607A688C235B00802178
:101DF0000902D150BD4602B080BDC04680B582B058
:101E000000AF78607A688A235B00D25880235B0138
:101E100013405A1E9341DBB2181CBD4602B080BD70
:101E200080B582B000AF78607A688A235B00D258B0
:101E300080231B0113405A1E9341DBB2181CBD4680
:101E400002B080BD80B582B000AF786039607A683A
:101E500086235B00D3583A68D2431A40111C7A6833
:101E600086235B00D150BD4602B080BD80B582B0F4
:101E700000AF78607A688A235B00D3580822134049
:101E80005A1E9341DBB2181CBD4602B080BDC0464D
:101E900090B585B000AF78600F23FB1800221A7050
:101EA0007B685B685B680F22BC189847031C237033
:101EB0000F23FB181B78181CBD4605B090BDC0460B
:101EC00090B587B000AFF860B9607A601723FB184F
:101ED00004221A70FB685B6829229B5C002B00D0EF
:101EE0000CE01723FC18F968BA687B68081C111C01
:101EF0001A1C00F00BF8031C2370C0461723FB18B4
:101F00001B78181CBD4607B090BDC04680B586B092
:101F100000AFF860B9607A601723FB1804221A70CA
:101F2000FB689B683B61FB685B6829229B5C002B1C
:101F30004CD11723FB1802221A703B691B7EDBB2BF
:101F400001225340DBB2002B40D0BB68002B39D0BC
:101F50007B68002B36D03B69BA681A603B697A68A7
:101F60009A603B690022DA603B6901221A76FB68BD
:101F70005B682B229B5C002B0DD0FB681B68181C38
:101F8000FFF72EFFFB681A688023DB05101C191C65
:101F9000FFF7FEFE07E0FB681A6880239B01101C18
:101FA000191CFFF7BBFE1723FB1800221A70FB68F1
:101FB0001968FB685B682D229B5C081C191CFFF7E5
:101FC000D9FE03E01723FB1803221A701723FB180E
:101FD0001B78181CBD4606B080BDC04680B584B0D5
:101FE00000AF78607B689B68FB60FB68DA68FB6821
:101FF0009B689A4241D27B685B682B229B5C002BDA
:1020000028D01AE0FB68DA68FB689B689A4212D213
:102010007B681968FB681A68FB68DB68D3181B7853
:102020009BB2081C191CFFF7D5FBFB68DB685A1C28
:10203000FB68DA6001E0C04655E07B681B68181C4D
:10204000FFF7DCFE031C1A1C01235340DBB2002BFC
:10205000D8D148E07B681968FB681A68FB68DB68C0
:10206000D3181B789BB2081C191CFFF7B3FBFB6845
:10207000DB685A1CFB68DA6035E07B681B68181C5B
:10208000FFF7CEFE031E2ED07B685B682B229B5C85
:10209000002B08D07B681A688023DB05101C191CF4
:1020A000FFF78AFE07E07B681A6880239B01101CFB
:1020B000191CFFF741FEC0467B681B68181CFFF720
:1020C0004BFE031E802BF7D0FB6800221A76FB68BC
:1020D00000221A607B685B689B68002B03D07B68DA
:1020E0005B689B689847BD4604B080BD90B585B0DD
:1020F00000AF78607B689B68FB607B685B682C2224
:102100009B5C002B51D033E0FB685A69FB681B696C
:102110009A4211D2FB685A68FB685B69D4187B68E5
:102120001B68181CFFF784FB031CDBB22370FB68E1
:102130005B695A1CFB685A61FB685A69FB681B693A
:102140009A4215D1FB6800225A767B681A68C02330
:10215000DB05101C191CFFF775FE7B685B68DB68EC
:10216000002B04D07B685B68DB6898470CE00BE0D1
:102170007B681B68181CFFF779FE031C1A1C0123DF
:102180005340DBB2002BBFD1FB685A69FB681B6967
:102190009A423CD2FB681A69FB685B69D31A7A6879
:1021A000101C191C00F036F831E0FB685A69FB6816
:1021B0001B699A4211D2FB685A68FB685B69D418A4
:1021C0007B681B68181CFFF733FB031CDBB2237012
:1021D000FB685B695A1CFB685A61FB685A69FB68BB
:1021E0001B699A4213D1FB6800225A767B681A68F1
:1021F000C0231B02101C191CFFF79EFD7B685B6847
:10220000DB68002B03D07B685B68DB689847BD46C2
:1022100005B090BD80B584B000AF78603960002310
:10222000FB607B685B682C229B5C1A1C012393403B
:10223000BB603A68BB689A4203D23B68013BFB60D3
:1022400002E0BB68013BFB607B6819687B685B68E8
:102250002C229A5CFB68081C111C1A1CFFF790FCCE
:10226000BD4604B080BDC04680B582B000AF021C40
:10227000FB1D1A70FB1D1B787F2B09D8064BFA1D1E
:102280001278111C1F220A40012191400A1C1A6079
:10229000BD4602B080BDC04600E100E0B0B582B0EE
:1022A00000AF021C3960FB1D1A70FB1D1B787F2BD1
:1022B00027D82D4CFB1D1B785BB29B082A49FA1DC1
:1022C000127852B29208C03292005258F91D097821
:1022D000081C03210140C900081CFF218140C9439B
:1022E00011403A689201FF200240F81D0078051C59
:1022F00003202840C00082400A43C0339B001A518B
:102300002EE01A4CFB1D1B781A1C0F231340083BB0
:102310009908164AFB1D1B78181C0F230340083B25
:102320009B0806339B00D3185B68FA1D1278101CBB
:1023300003220240D200101CFF228240D2431A40E6
:102340003B689B01FF200340F81D0078051C03201B
:102350002840C00083401A438B1D9B00E3185A603D
:10236000BD4602B0B0BDC04600E100E000ED00E0B7
:1023700080B582B000AF7860081C111CFB1C021CE9
:102380001A70BB1C0A1C1A70FB1C1878FB1C1B78EB
:102390007A6806339B00D3185B68072293431A1CA4
:1023A000BB1C1B781A437968831D9B00CB185A60AD
:1023B000BD4602B080BDC04680B582B000AF786037
:1023C00039607A683B68101C191C0122FFF794F9E8
:1023D000BD4602B080BDC04680B582B000AF786017
:1023E0007B681B6C0F22934302221A437B681A649A
:1023F000BD4602B080BDC04680B582B000AFFB1DB7
:1024000000221A70314A324B101C02211A1CFEF7AE
:102410007DFE304A304B101C191CFFF7CDFF2D4BB1
:10242000181C00210122FFF7A3FF2A4B181C0321CF
:102430000022FFF79DFF274B181C05210022FFF704
:1024400097FF244B181C102104220123FFF738FBAF
:10245000204B181C002104220023FFF75FFB1D4BBB
:10246000181CFFF7B9FF194A1C4B101C03211A1C3A
:10247000FEF74CFE174B181C10210122FFF79CFBA6
:10248000144B181C10210122FFF7B6FB114B181C2E
:1024900010210022FFF7D4FB0E4B181C1321002241
:1024A000FFF7CEFB0A200321FFF7F8FE0A20FFF713
:1024B000DBFE09200321FFF7F1FE0920FFF7D4FE20
:1024C000FB1D1B78181CBD4602B080BD00010440F6
:1024D0007CA10010000200482CA1001038A10010BF
:1024E00080B500AF024B181CFFF778FDBD4680BDDC
:1024F0002005002080B500AF024B181CFFF7F6FD49
:10250000BD4680BD2005002080B582B000AF786058
:102510000A1CFB1C1A70FB1C1B7801229A407B686A
:10252000DA60BD4602B080BD80B582B000AF786091
:102530007B680122DA60BD4602B080BD80B582B002
:1025400000AF78607B6802221A61BD4602B080BD90
:1025500080B582B000AF78600A1CBB1C1A80BB1C1F
:102560001A887B685A63BD4602B080BD80B582B0D0
:1025700000AF78600A1CBB1C1A80BB1C1A887B68E1
:10258000DA63BD4602B080BD80B582B000AF78602E
:1025900039607B683A681A61BD4602B080BDC046AA
:1025A00080B582B000AF78600A1CFB1C1A707B6893
:1025B000A4229A58FB1C1B78012199400B1C1A433A
:1025C0007B68A4215A50BD4602B080BD90B585B04D
:1025D00000AF78600F23FB1800221A707B68262258
:1025E0009B5C01225340DBB2002B0CD07B68212284
:1025F0009B5C002B07D10F23FC187B68181C00F094
:102600002DF8031C23700F23FB181B78181CBD46E4
:1026100005B090BD80B584B000AF78607B6826229D
:102620009B5C002B0ED07B6821229B5C002B04D18D
:102630007B685B69181CFFF777FF0F23FB180022EC
:102640001A7003E00F23FB1801221A700F23FB18E6
:102650001B78181CBD4604B080BDC04690B585B03F
:1026600000AF78607B681B690F22BC18181C00F053
:1026700061FA031C23707B681B699A687B681B7E68
:10268000101C191CFFF740FF7B685A697B68DB69E7
:10269000101C191CFEF768FF7B68181C00F030F84E
:1026A0007B6825229B5C002B0FD07B6859697B6877
:1026B00020229B5C081C00211A1CFEF789FF7B6806
:1026C0005B69181C0021FFF76BFF7B685B69181CB6
:1026D000FFF734FF7B682622012199547B6824226E
:1026E0009B5C002B04D07B685B69181CFFF71CFF08
:1026F0000F23FB181B78181CBD4605B090BDC046C3
:1027000080B582B000AF78607B685A697B685B8C6B
:10271000101C191CFFF71CFF7B685B69181C00214B
:10272000FFF724FF7B681B699A687B68DB68101CD5
:10273000191CFFF729FFBD4602B080BD80B582B0ED
:1027400000AF78600A1CFB1C1A70FB1C1B7801226E
:102750009A407B68DA60BD4602B080BD80B582B029
:1027600000AF78607B680122DA60BD4602B080BDB0
:1027700080B582B000AF78600A1CBB1C1A80BB1CFD
:102780001A887B685A63BD4602B080BD80B582B0AE
:1027900000AF78600A1CBB1C1A80BB1C1A887B68BF
:1027A000DA63BD4602B080BD80B582B000AF78600C
:1027B00039607B683A681A61BD4602B080BDC04688
:1027C00080B582B000AF78600A1CFB1C1A707B6871
:1027D000A4229A58FB1C1B78012199400B1C1A4318
:1027E0007B68A4215A50BD4602B080BD90B585B02B
:1027F00000AF78600F23FB1801221A707B68292232
:102800009B5C022B55D17B681B680F22BC18181CDF
:1028100000F090F9031C23700F23FB181B78002B8A
:1028200043D17B689A687B68DB68101C191CFEF733
:102830009BFE7B689A687B68DB699BB2101C191C45
:10284000FFF796FF7B689A687B689B699BB2101CB8
:10285000191CFFF79BFF7B685A687B685B6A101C3A
:10286000191CFFF7A1FF7B68181C00F029F87B6892
:1028700019697B682C229A5C7B685B69081C111CB7
:102880001A1CFEF743FC7B682922002199547B68BF
:102890002F229B5C002B03D07B68181C00F082F871
:1028A0000F23FB1800221A7003E07B682922022103
:1028B00099540F23FB181B78181CBD4605B090BD1A
:1028C00080B582B000AF78607B6830229B5C002BC3
:1028D0000FD07B689B68181C0021FFF771FF7B6895
:1028E00099687B682A229B5C081C00211A1CFEF751
:1028F0006FFE7B6831229B5C002B0FD07B689B684E
:10290000181C0221FFF75CFF7B6899687B682B220B
:102910009B5C081C02211A1CFEF75AFEBD4602B041
:1029200080BDC04680B582B000AF78607B68292248
:102930009B5C002B04D07B6829229B5C042B11D16B
:102940007B6859687B682E229B5C081C191CFFF76A
:10295000F5FE7B689B68181CFFF700FF7B68292247
:1029600003219954BD4602B080BDC04690B585B0E4
:1029700000AF78600F23FB1801221A707B682822B1
:102980009B5C002B07D10F23FC187B68181CFFF7FA
:102990002DFF031C23700F23FB181B78181CBD464A
:1029A00005B090BD80B582B000AF78607B6828220A
:1029B0009B5C002B03D17B68181CFFF7B3FFBD465F
:1029C00002B080BD80B582B000AF021CFB1D1A7042
:1029D000FB1D1B787F2B09D8064BFA1D1278111CA2
:1029E0001F220A40012191400A1C1A60BD4602B014
:1029F00080BDC04600E100E0B0B582B000AF021C6F
:102A00003960FB1D1A70FB1D1B787F2B27D82D4CBE
:102A1000FB1D1B785BB29B082A49FA1D127852B243
:102A20009208C03292005258F91D0978081C0321FF
:102A30000140C900081CFF218140C94311403A6888
:102A40009201FF200240F81D0078051C0320284059
:102A5000C00082400A43C0339B001A512EE01A4C3A
:102A6000FB1D1B781A1C0F231340083B9908164ABC
:102A7000FB1D1B78181C0F230340083B9B080633E3
:102A80009B00D3185B68FA1D1278101C03220240C9
:102A9000D200101CFF228240D2431A403B689B01A7
:102AA000FF200340F81D0078051C03202840C000CB
:102AB00083401A438B1D9B00E3185A60BD4602B049
:102AC000B0BDC04600E100E000ED00E080B582B09E
:102AD00000AF78607B681B785BB2181CFFF772FF51
:102AE000BD4602B080BDC04680B582B000AF786000
:102AF0007B681A787B685B78191C53B2181CFFF747
:102B00007BFF7B689B78002B03D07B68181CFFF74A
:102B1000DDFF0023181CBD4602B080BD80B582B029
:102B200000AF78607B6880225200DA60BD4602B058
:102B300080BDC04680B582B000AF78607B685B7BAB
:102B400001225340DBB2002B0FD07B689A687B6870
:102B50001B7B101C191CFEF7E3FC7B689B68181C90
:102B6000FFF7DCFF7B6801225A730023181CBD4667
:102B700002B080BD80B584B000AFF860B9607A6003
:102B8000FB68043BFB60FB68802252041A60FB6810
:102B9000043BFB60BA68FB681A60FB68043BFB609F
:102BA000084AFB681A60FB68143BFB607A68FB68A4
:102BB0001A60FB68203BFB60FB68181CBD4604B034
:102BC00080BDC046C92B001080B582B000AF002385
:102BD0007B60074B1B68013301D072B6FEE772B60B
:102BE000C0467B68002BFCD0BD4602B080BDC0460D
:102BF000F405002080B500AFBD4680BD0000000098
:102C00000B4A13681868203080F30988022080F38B
:102C10001488BFF36F8F3FBCAE4608BC04BC62B6DD
:102C20001847C046C046C046C046C046C046C0461B
:102C3000D8060020C046C046C046C046C046C04672
:102C400080B500AF0E4B0E4A1268FF2109040A43FB
:102C50001A600B4B0A4A1268FF2109060A431A60E0
:102C600000F096F8074B00221A60FFF7C9FF01F049
:102C700067F9FFF7A9FF0023181CBD4680BDC046B9
:102C800020ED00E0F405002080B500AF044B802269
:102C900052051A60BFF34F8FBFF36F8FBD4680BDE3
:102CA00004ED00E080B500AF72B6054B1B685A1CFE
:102CB000034B1A60BFF34F8FBFF36F8FBD4680BDCC
:102CC000F405002080B500AF084B1B68002B01D134
:102CD00072B6FEE7054B1B685A1E044B1A60034B85
:102CE0001B68002B00D162B6BD4680BDF4050020F4
:102CF000EFF3108072B67047181CC04680F310883E
:102D00007047C04600000000000000000000000006
:102D1000EFF309800E4B1A6820381060F0C044466B
:102D20004D4656465F46F0C008B572B601F008F948
:102D300062B60CBC116808681030F0C8A046A946FD
:102D4000B246BB4680F309882038F0C81847C04611
:102D5000D8060020C046C046C046C046C046C04651
:102D600080B582B000AFFFF7C3FF031C7B6001F0AA
:102D700037F8031E03D0054B802252051A607B688A
:102D8000181CFFF7BBFFBD4602B080BD04ED00E09C
:102D900098B500AF0A4B00221A600A4B00221A6055
:102DA000094C0A4B1B68181CFA23990002F034FAEC
:102DB000031C013B2360024B07221A60BD4698BDED
:102DC00010E000E018E000E014E000E0FC3F00202C
:102DD00080B584B000AF786000F05CFF7B68181CA1
:102DE00002F0C0FB031CFB6000F060FFFB68181CD6
:102DF000BD4604B080BDC04680B582B000AF7860EB
:102E00007B68002B07D000F045FF7B68181C02F0A0
:102E1000B3FB00F04BFFBD4602B080BD80B582B071
:102E200000AF78607B6808331A1C7B685A607B6847
:102E3000012252429A607B6808331A1C7B68DA6070
:102E40007B6808331A1C7B681A617B6800221A6051
:102E5000BD4602B080BDC04680B582B000AF78608C
:102E60007B6800221A61BD4602B080BD80B584B087
:102E700000AF786039607B685B68FB603B68FA682C
:102E80005A60FB689A683B689A60FB689B683A687E
:102E90005A60FB683A689A603B687A681A617B6896
:102EA0001B685A1C7B681A60BD4604B080BDC046D2
:102EB00080B584B000AF786039603B681B68BB6048
:102EC000BB68013303D17B681B69FB600CE07B6846
:102ED0000833FB6002E0FB685B68FB60FB685B68D3
:102EE0001A68BB689A42F6D9FB685A683B685A6010
:102EF0003B685B683A689A603B68FA689A60FB686E
:102F00003A685A603B687A681A617B681B685A1C89
:102F10007B681A60BD4604B080BDC04680B584B0F1
:102F200000AF78607B681B69FB607B685B687A68D0
:102F300092689A607B689B687A6852685A60FB68FE
:102F40005A687B689A4203D17B689A68FB685A602A
:102F50007B6800221A61FB681B685A1EFB681A60B6
:102F6000FB681B68181CBD4604B080BD80B584B0EA
:102F700000AF786039607B68FB60FB68002B01D193
:102F800072B6FEE7FFF78EFEFB681A68FB68D96B26
:102F9000FB681B6C4B43D218FB689A60FB680022ED
:102FA0009A63FB681A68FB685A60FB681A68FB68DA
:102FB000DB6B591EFB681B6C4B43D218FB68DA6055
:102FC000FB684422FF219954FB684522FF21995454
:102FD0003B68002B0DD1FB681B69002B13D0FB68ED
:102FE0001033181C01F03CF8031E0CD0FFF74CFE08
:102FF00009E0FB681033181CFFF710FFFB6824334F
:10300000181CFFF70BFFFFF75DFE0123181CBD46E0
:1030100004B080BD90B58BB002AFF860B960FB1D05
:103020001A70FB68002B01D172B6FEE7FB68BA6824
:103030005343FB61BB68002B08D0F869B96802F004
:10304000EBF8031C1A1EFB689A4201D1012300E031
:103050000023002B01D172B6FEE7FB6954331A1E20
:10306000FB699A4201D872B6FEE7FB695433181C1B
:10307000FFF7AEFE031CBB61BB69002B0ED0BB6922
:103080007B617B6954337B61F868B9687A69FB1DA1
:103090001C78BB690093231C00F006F8BB69181C60
:1030A000BD4609B090BDC04680B584B000AFF860A1
:1030B000B9607A601A1CFB1C1A70BB68002B03D124
:1030C000BB69BA691A6002E0BB697A681A60BB69B9
:1030D000FA68DA63BB69BA681A64BB69181C012113
:1030E000FFF744FFBB69FA1C502112785A54BB69A0
:1030F00000229A64BD4604B080BDC04680B58AB047
:1031000000AFF860B9607A603B6000237B62FB68C7
:103110003B623B6A002B01D172B6FEE7BB68002B15
:1031200003D13B6A1B6C002B01D1012300E000237B
:10313000002B01D172B6FEE73B68022B03D13B6A3C
:10314000DB6B012B01D1012300E00023002B01D117
:1031500072B6FEE701F00AF9031E02D17B68002B6C
:1031600001D1012300E00023002B01D172B6FEE75C
:10317000FFF798FD3B6A9A6B3B6ADB6B9A4202D37E
:103180003B68022B38D13B6A9B6BFB61396ABA689A
:103190003B68081C111C1A1C00F0E6F9031CBB61FB
:1031A0003B6A9B6C002B10D03B68022B04D1FB695F
:1031B000002B01D0C0461BE03B6A181C00F064FBEA
:1031C000031E15D0FFF760FD12E03B6A5B6A002B1F
:1031D00009D03B6A2433181C00F042FF031E07D0BD
:1031E000FFF752FD04E0BB69002B01D0FFF74CFD57
:1031F000FFF768FD012360E07B68002B03D1FFF738
:1032000061FD002359E07B6A002B06D11023FB18D7
:10321000181C00F081FF01237B62FFF753FD00F0D3
:1032200039FDFFF73FFD3B6A44229B5CDBB25BB29A
:10323000013303D13B6A4422002199543B6A452261
:103240009B5CDBB25BB2013303D13B6A45220021B8
:103250009954FFF737FD1023FA183B1D101C191C59
:1032600000F06EFF031E1FD13B6A181C00F096FA97
:10327000031E12D03B6A10331A1C7B68101C191CE9
:1032800000F0AEFE3B6A181C00F006FA00F00EFDDE
:10329000031E11D1FFF7F8FC0EE03B6A181C00F08A
:1032A000FBF900F003FD63E73B6A181C00F0F4F93A
:1032B00000F0FCFC002300E05AE7181CBD460AB0F1
:1032C00080BDC04680B58AB000AFF860B9607A6052
:1032D0003B60FB683B623B6A002B01D172B6FEE7A4
:1032E000BB68002B03D13B6A1B6C002B01D101236F
:1032F00000E00023002B01D172B6FEE73B68022BF1
:1033000003D13B6ADB6B012B01D1012300E00023D9
:10331000002B01D172B6FEE7FFF7EAFC031CFB614C
:103320003B6A9A6B3B6ADB6B9A4202D33B68022B87
:1033300055D11B23FB183A6A4521525C1A703B6A2F
:103340009B6B7B61396ABA683B68081C111C1A1CAC
:1033500000F00AF91B23FB181B785BB201332AD15A
:103360003B6A9B6C002B14D03B68022B04D17B6919
:10337000002B01D0C0462FE03B6A181C00F084FAF5
:10338000031E29D07B68002B26D07B6801221A609F
:1033900022E03B6A5B6A002B1ED03B6A2433181C78
:1033A00000F05EFE031E17D07B68002B14D07B68F4
:1033B00001221A6010E01B23FB181B785BB27F2BE5
:1033C00001D172B6FEE71B23FB181B780133DBB279
:1033D000D9B23B6A4522995401237B6201E0002364
:1033E0007B62FB69181CFFF789FC7B6A181CBD46D1
:1033F0000AB080BD80B58AB000AFF860B9607A606D
:1034000000237B62FB683B623B6A002B01D172B6F2
:10341000FEE7BB68002B03D13B6A1B6C002B01D17C
:10342000012300E00023002B01D172B6FEE700F07B
:103430009DFF031E02D17B68002B01D1012300E018
:103440000023002B01D172B6FEE7FFF72BFC3B6A8D
:103450009B6BFB61FB69002B1AD03A6ABB68101C9E
:10346000191C00F0F1F8FB695A1E3B6A9A633B6A2B
:103470001B69002B08D03B6A1033181C00F0F0FDCC
:10348000031E01D0FFF700FCFFF71CFC012366E0E0
:103490007B68002B03D1FFF715FC00235FE07B6AFC
:1034A000002B06D11423FB18181C00F035FE012355
:1034B0007B62FFF707FC00F0EDFBFFF7F3FB3B6AD5
:1034C00044229B5CDBB25BB2013303D13B6A4422F2
:1034D000002199543B6A45229B5CDBB25BB201330D
:1034E00003D13B6A452200219954FFF7EBFB1423DB
:1034F000FA183B1D101C191C00F022FE031E1FD1E0
:103500003B6A181C00F034F9031E12D03B6A2433C6
:103510001A1C7B68101C191C00F062FD3B6A181C09
:1035200000F0BAF800F0C2FB031E17D1FFF7ACFBA6
:1035300014E03B6A181C00F0AFF800F0B7FB84E71A
:103540003B6A181C00F0A8F800F0B0FB3B6A181C9E
:1035500000F00EF9031E01D0002300E075E7181CEF
:10356000BD460AB080BDC04680B586B000AFF860E9
:10357000B9607A6000237B61FB689B6B3B61FB68F1
:103580001B6C002B0ED1FB681B68002B52D1FB6813
:103590009B68181C00F006FF031C7B61FB6800227F
:1035A0009A6047E07B68002B1BD1FB685968FB6879
:1035B0001B6CBA68081C111C1A1C01F0E7FFFB68A1
:1035C0005A68FB681B6CD218FB685A60FB685A6823
:1035D000FB689B689A422DD3FB681A68FB685A60A7
:1035E00028E0FB68D968FB681B6CBA68081C111CD2
:1035F0001A1C01F0CBFFFB68DA68FB681B6C5B42AE
:10360000D218FB68DA60FB68DA68FB681B689A42CC
:1036100007D2FB689A68FB681B6C5B42D218FB6898
:10362000DA607B68022B05D13B69002B02D03B6935
:10363000013B3B613B695A1CFB689A637B69181C20
:10364000BD4606B080BDC04680B582B000AF786090
:1036500039607B681B6C002B1AD07B68DA687B684A
:103660001B6CD2187B68DA607B68DA687B689B68C1
:103670009A4203D37B681A687B68DA607B68DA68F1
:103680007B681B6C3968081C111C1A1C01F07EFF3A
:10369000BD4602B080BDC04680B584B000AF786042
:1036A000FFF700FB0F23FB187A684521525C1A7064
:1036B00023E07B689B6C002B08D07B68181C00F013
:1036C000E3F8031E11D000F09FFD0EE07B685B6AFB
:1036D000002B09D07B682433181C00F0C1FC031EAA
:1036E00003D000F091FD00E00DE00F23FB181B78E4
:1036F000013BDAB20F23FB181A700F23FB181B785B
:103700005BB2002BD5DC7B684522FF219954FFF783
:10371000D9FAFFF7C7FA0E23FB187A684421525CE6
:103720001A7016E07B681B69002B11D07B68103380
:10373000181C00F095FC031E01D000F065FD0E235F
:10374000FB181B78013BDAB20E23FB181A7000E05D
:1037500005E00E23FB181B785BB2002BE2DC7B68D4
:103760004422FF219954FFF7ADFABD4604B080BD55
:1037700080B584B000AF7860FFF794FA7B689B6BEC
:10378000002B02D10123FB6001E00023FB60FFF767
:1037900099FAFB68181CBD4604B080BD80B584B0A2
:1037A00000AF7860FFF77EFA7B689A6B7B68DB6B13
:1037B0009A4202D10123FB6001E00023FB60FFF786
:1037C00081FAFB68181CBD4604B080BD80B584B08A
:1037D00000AF786039600023FB6014E00D4BFA689D
:1037E000D200D358002B0BD10A4BFA68D2003968AB
:1037F000D150084AFB68DB00D3187A685A6005E0AC
:10380000FB680133FB60FB68072BE7D9BD4604B0BA
:1038100080BDC046D408002080B586B000AFF860F7
:10382000B9607A60FB687B61FFF73CFA7B694422F0
:103830009B5CDBB25BB2013303D17B694422002184
:1038400099547B6945229B5CDBB25BB2013303D1A7
:103850007B69452200219954FFF734FA7B699B6B01
:10386000002B09D17B692433191CBA687B68081CBA
:10387000111C1A1C00F0D0FB7B69181CFFF70CFF11
:10388000BD4606B080BDC04680B586B000AF78604A
:103890007B689B6C3B6100237B613B69002B01D102
:1038A00072B6FEE73B699A6B3B69DB6B9A4201D3C8
:1038B00072B6FEE73B699A6B3B69DB6B9A4234D286
:1038C0000F23FB183A694521525C1A703A693B1D77
:1038D000101C191C0022FFF747FE031C7B610F23FD
:1038E000FB181B785BB201330DD13B695B6A002B7F
:1038F0001BD03B692433181C00F0B2FB031E14D00C
:1039000001237B6111E00F23FB181B785BB27F2B37
:1039100001D172B6FEE70F23FB181B780133DBB22F
:10392000D9B23B6945229954FFE77B69181CBD4613
:1039300006B080BD90B58DB004AFF860B9603B6053
:10394000BB1D1A80BB1D1B889B00181CFFF740FA8B
:10395000031C7B617B69002B10D07020FFF738FAC5
:10396000031CFB61FB69002B03D0FB697A691A63B6
:1039700006E07B69181CFFF73FFA01E00023FB61BA
:10398000FB69002B16D0BB1D1A88F868B9683C6823
:103990003B6B00937B6B0193FB69029300230393C2
:1039A000231C00F00FF8FB69181C00F0A7F8012396
:1039B000BB6102E001235B42BB61BB69181CBD46D1
:1039C00009B090BD80B586B000AFF860B9607A608C
:1039D0003B60BB6A1A6B7B689B00101CA5211A1CFC
:1039E00001F0DDFDBB6A1A6B7B6843498C4663447A
:1039F0009B00D3183B613B69072293433B613B69C2
:103A00000722134001D072B6FEE7BB68002B1FD01F
:103A100000237B6114E0BA687B69D3181878BA6A0E
:103A200030217B69D3185B18021C1A71BA687B6954
:103A3000D3181B78002B00D105E07B6901337B6133
:103A40007B690F2BE7D9BB6A43220021995403E01D
:103A5000BB6A3422002199543B6A042B01D9042308
:103A60003B62BB6A3A6ADA62BB6A3A6ADA64BB6A88
:103A700000221A65BB6A0433181CFFF7EDF9BB6A14
:103A80001833181CFFF7E8F9BB6ABA6A1A613B6A77
:103A90000522D21ABB6A9A61BB6ABA6A5A62BB6AC9
:103AA0005433181C0021142201F079FDBB6A6833DD
:103AB000181C0021042201F072FDBB6A6C33181C33
:103AC0000021012201F06BFDBB6A6D220021995497
:103AD0003969FA683B68081C111C1A1CFFF74AF880
:103AE000021CBB6A1A607B6A002B02D07B6ABA6A2E
:103AF0001A60BD4606B080BDFFFFFF3F80B582B0B3
:103B000000AF7860FFF7CEF8294B1B685A1C284B92
:103B10001A60284B1B68002B09D1264B7A681A6063
:103B2000234B1B68012B10D100F088FB0DE0224BCA
:103B30001B68002B09D11F4B1B68DA6A7B68DB6AA4
:103B40009A4202D81B4B7A681A601C4B1B685A1C9D
:103B50001A4B1A60194B1A687B685A647B68DA6AD8
:103B6000174B1B689A4203D97B68DA6A144B1A60B8
:103B70007B68DA6A131C9B009B189B00114A9A18F9
:103B80007B680433101C191CFFF770F9FFF79AF8D3
:103B9000094B1B68002B08D0064B1B68DA6A7B6850
:103BA000DB6A9A4201D2FFF76FF8BD4602B080BDD2
:103BB000B0070020D8060020BC070020CC0700205A
:103BC000B8070020DC06002080B584B000AF786024
:103BD0000023FB607B68002B10D00C4B1B68002B74
:103BE00001D072B6FEE700F055F87B68181C002182
:103BF00000F034FC00F05AF8031CFB60FB68002B5B
:103C000001D1FFF741F8BD4604B080BDD8070020C0
:103C100080B584B002AF1849184A00230093184BAE
:103C20000193081C111C3C220023FFF783FE031C98
:103C30007B607B68012B03D100F068FC031C7B6078
:103C40007B68012B0DD172B60E4B012252421A60D5
:103C50000D4B01221A600D4B00221A60FEF7F0FF97
:103C600004E07B68013301D172B6FEE7084B1B68A4
:103C7000BD4602B080BDC0461D420010ACA1001080
:103C8000D4070020D0070020BC070020B407002084
:103C9000F805002080B500AF034B1B685A1C024B8F
:103CA0001A60BD4680BDC046D807002080B584B0EC
:103CB00000AF0023FB600023BB603A4B1B68002B66
:103CC00001D172B6FEE7FEF7EDFF364B1B685A1EB8
:103CD000344B1A60334B1B68002B5BD1324B1B6893
:103CE000002B57D02FE0314BDB68DB68FB60FB68B3
:103CF0001833181CFFF712F9FB680433181CFFF780
:103D00000DF9FB68DA6A2A4B1B689A4203D9FB68F3
:103D1000DA6A274B1A60FB68DA6A131C9B009B184F
:103D20009B00244A9A18FB680433101C191CFFF7E7
:103D30009DF8FB68DA6A204B1B68DB6A9A4202D363
:103D40001E4B01221A60194B1B68002BCBD1FB685C
:103D5000002B01D000F0F2FA194B1B687B607B68E6
:103D6000002B0FD000F03CF8031E02D0134B0122B1
:103D70001A607B68013B7B607B68002BF2D1104BA3
:103D800000221A600D4B1B68002B03D00123BB607F
:103D9000FEF77AFFFEF796FFBB68181CBD4604B01D
:103DA00080BDC046D8070020B00700207007002063
:103DB000B8070020DC060020D8060020C407002039
:103DC000C007002080B582B000AF044B1B687B6049
:103DD0007B68181CBD4602B080BDC046B4070020F9
:103DE00080B586B000AF00237B614A4B1B68002B77
:103DF00000D084E0484B1B6801333B61464B3A6975
:103E00001A603B69002B17D1444B1B681B68002BC1
:103E100001D072B6FEE7414B1B68FB60404B1A684D
:103E20003E4B1A603E4BFA681A603E4B1B685A1CA8
:103E30003C4B1A6000F082FA3B4B1B683A699A428D
:103E400049D3364B1B681B68002B04D1364B01222B
:103E500052421A603FE0314B1B68DB68DB68BB6095
:103E6000BB685B687B603A697B689A4203D22E4BE1
:103E70007A681A602FE0BB680433181CFFF74EF80D
:103E8000BB689B6A002B04D0BB681833181CFFF773
:103E900045F8BB68DA6A254B1B689A4203D9BB68B0
:103EA000DA6A224B1A60BB68DA6A131C9B009B1803
:103EB0009B001F4A9A18BB680433101C191CFEF79C
:103EC000D5FFBB68DA6A1B4B1B68DB6A9A4201D3D9
:103ED00001237B61B5E7174B1B68DA6A1449131C91
:103EE0009B009B189B005B58012B01D901237B6130
:103EF000114B1B68002B01D001237B6104E00F4BA9
:103F00001B685A1C0D4B1A607B69181CBD4606B015
:103F100080BDC046D8070020B407002068070020F5
:103F20006C070020C8070020D0070020B807002039
:103F3000DC060020D8060020C4070020C0070020AF
:103F400080B582B000AF214B1B68002B03D0204B03
:103F500001221A6037E01E4B00221A601D4B1B68BD
:103F60007B6007E07B68002B01D172B6FEE77B68BF
:103F7000013B7B6018497A68131C9B009B189B00CF
:103F80005B58002BEED07A68131C9B009B189B009B
:103F9000114A9B183B603B685B685A683B685A60F3
:103FA0003B685A683B6808339A4204D13B685B68B7
:103FB0005A683B685A603B685B68DA68074B1A606E
:103FC000044B7A681A60BD4602B080BDD807002055
:103FD000C4070020B8070020DC060020D806002017
:103FE00080B582B000AF786039607B68002B01D16A
:103FF00072B6FEE7074B1B6818337A68101C191C51
:10400000FEF756FF3B68181C012100F027FABD4659
:1040100002B080BDD806002080B584B000AFF86043
:10402000B9607A60FB68002B01D172B6FEE70B4BDA
:104030001B681833FA68101C191CFEF717FF7B6801
:10404000002B02D001235B42BB60BA687B68101C66
:10405000191C00F003FABD4604B080BDD80600204C
:1040600080B584B000AF78607B68DB68DB68BB60DC
:10407000BB68002B01D172B6FEE7BB681833181C71
:10408000FEF74CFF1E4B1B68002B1DD1BB68043391
:10409000181CFEF743FFBB68DA6A1A4B1B689A428A
:1040A00003D9BB68DA6A174B1A60BB68DA6A131C5B
:1040B0009B009B189B00144A9A18BB680433101C81
:1040C000191CFEF7D3FE06E0BB6818330F4A101C1C
:1040D000191CFEF7CBFEBB68DA6A0D4B1B68DB6A66
:1040E0009A4205D90123FB600A4B01221A6001E0C4
:1040F0000023FB60FB68181CBD4604B080BDC046B1
:10410000D8070020B8070020DC0600207007002038
:10411000D8060020C407002080B582B000AF7860C8
:10412000054B1A687B681A60044B1A687B685A60F2
:10413000BD4602B080BDC046C8070020B4070020BD
:1041400080B586B000AF786039607B68002B01D104
:1041500072B6FEE73B68002B01D172B6FEE7FEF7B0
:10416000A1FD264B1B683B617B685B683A69D31AEB
:10417000FB60234B1B686D229B5C002B07D0204B00
:104180001B686D220021995401237B612EE03B685E
:104190001B68013302D100237B6127E07B681A682A
:1041A000184B1B689A420AD07B685A683B699A424E
:1041B00005D801237B613B6800221A6016E03B684A
:1041C0001A68FB689A420CD93B681A68FB68D21AD5
:1041D0003B681A607B68181CFFF79EFF00237B6119
:1041E00004E03B6800221A6001237B61FEF76AFD50
:1041F0007B69181CBD4606B080BDC046B4070020D0
:10420000D8060020C807002080B500AF024B01226D
:104210001A60BD4680BDC046C407002080B582B08C
:1042200000AF786000F04EF8034B1B68012B01D9FA
:10423000FEF72AFDF6E7C046DC06002080B582B016
:1042400000AF00237B600CE07A68131C9B009B1876
:104250009B00144A9B18181CFEF7E0FD7B68013395
:104260007B607B68042BEFD90F4B181CFEF7D6FD43
:104270000E4B181CFEF7D2FD0D4B181CFEF7CEFDA1
:104280000C4B181CFEF7CAFD0B4B181CFEF7C6FDA5
:104290000A4B054A1A600A4B044A1A60BD4602B02E
:1042A00080BDC046DC0600204007002054070020E7
:1042B00070070020840700209C070020680700206A
:1042C0006C07002080B582B000AF1AE0FEF7EAFC70
:1042D0000F4BDB68DB687B607B680433181CFEF7E0
:1042E0001DFE0C4B1B685A1E0A4B1A600A4B1B68BA
:1042F0005A1E094B1A60FEF7E5FC7B68181C00F09B
:104300000DF8054B1B68002BE0D1BD4602B080BD07
:1043100084070020B00700209807002080B582B0F5
:1043200000AF78607B681B6B181CFEF765FD7B682F
:10433000181CFEF761FDBD4602B080BD80B500AF20
:10434000084B1B681B68002B04D1074B012252420B
:104350001A6005E0034B1B68DB681A68024B1A60A1
:10436000BD4680BD68070020D007002080B582B020
:1043700000AF0A4B1B68002B02D101237B6008E0D1
:10438000074B1B68002B02D102237B6001E0002356
:104390007B607B68181CBD4602B080BDBC07002056
:1043A000D807002080B584B000AF78607B68BB6020
:1043B0000023FB607B68002B44D0254B1B68BA6848
:1043C0009A4201D072B6FEE7BB681B6D002B01D18B
:1043D00072B6FEE7BB681B6D5A1EBB681A65BB68E8
:1043E000DA6ABB68DB6C9A422CD0BB681B6D002B71
:1043F00028D1BB680433181CFEF790FDBB68DA6C4B
:10440000BB68DA62BB68DB6A0522D21ABB689A61B4
:10441000BB68DA6A0F4B1B689A4203D9BB68DA6A39
:104420000C4B1A60BB68DA6A131C9B009B189B003C
:10443000094A9A18BB680433101C191CFEF716FDB4
:104440000123FB60FB68181CBD4604B080BDC0465C
:10445000D8060020B8070020DC06002080B584B014
:1044600000AF78603960234B1B68FB60224B1B68F0
:104470006D2200219954204B1B680433181CFEF751
:104480004DFD7B6801330BD13B68002B08D01A4BE4
:104490001B680433194A101C191CFEF7E7FC26E0C0
:1044A000FA687B68D318BB60134B1B68BA685A6004
:1044B000BA68FB689A4209D2114B1A680E4B1B6806
:1044C0000433101C191CFEF7F3FC10E00D4B1A68A6
:1044D000094B1B680433101C191CFEF7E9FC0A4B3E
:1044E0001B68BA689A4202D2074BBA681A60BD4686
:1044F00004B080BDB4070020D80600209C0700202F
:104500006C07002068070020D007002080B584B029
:1045100002AF00237B6000F0C9FA0E4B1B68002B32
:104520000DD00D490D4A022300930D4B0193081C39
:10453000111C78220023FFF7FDF9031C7B607B68C8
:10454000002B01D172B6FEE77B68181CBD4602B095
:1045500080BDC0460C08002099460010C4A1001080
:104560001008002080B58AB000AFF860B9607A60AA
:104570003B6000237B62FB68002B01D172B6FEE733
:10458000224B1B68002B3BD01423FB18BA681A601F
:104590001423FB187A685A601423FB18FA689A608F
:1045A000BB68052B1FDCFFF7E1FE031E022B0DD1BC
:1045B000164B19681423FA183B6B081C111C1A1CA3
:1045C0000023FEF79BFD031C7B6219E00F4B1A686A
:1045D0001423FB18101C191C00220023FEF78EFD6B
:1045E000031C7B620CE0094B19681423FA183B6822
:1045F000081C111C1A1C0023FEF764FE031C7B62BE
:104600007B6A181CBD460AB080BDC0460C0800205D
:1046100080B586B002AF786039601E4B1B68DB68DE
:10462000DB68FB60FB680433181CFEF777FCFB6853
:1046300028229B5C1A1C042313401AD0FB689A6939
:104640007B68D118F8683A687B6800F0C3F8031EED
:1046500018D0F9687A6800230093081C0021002311
:10466000FFF780FF031CBB60BB68002B0AD172B64A
:10467000FEE7FB6828229B5C01229343D9B2FB68CA
:1046800028229954FB681B6AFA68101C9847BD469B
:1046900004B080BD0408002080B584B000AF78600D
:1046A0000823FB18181C00F053F8031CFB60BB68C0
:1046B000FA68101C191C00F003F800F0CDF8EFE7C1
:1046C00080B584B000AF78603960FFF7E3FA082363
:1046D000FB18181C00F05EF8031CFB60BB68002B85
:1046E0002DD13B68002B0CD17A68FB689A4208D820
:1046F000FFF7DCFA7A68FB68101C191CFFF788FFCB
:104700001FE03B68002B08D00F4B1B681B68002B79
:1047100001D1012300E000233B600C4B19687A684B
:10472000FB68D21A3B68081C111C1A1CFFF774F8AE
:10473000FFF7BCFA031E04D1FEF7A6FA01E0FFF76B
:10474000B5FABD4604B080BD080800200C08002062
:1047500080B584B000AF78600D4B1B681B68002BE0
:1047600001D1012200E000227B681A607B681B688F
:10477000002B05D1064B1B68DB681B68FB6001E062
:104780000023FB60FB68181CBD4604B080BDC0461A
:104790000408002080B584B000AF7860FFF712FBFA
:1047A000031CFB600A4B1B68FA689A4205D200F0B2
:1047B0001FF97B6801221A6002E07B6800221A6000
:1047C000034BFA681A60FB68181CBD4604B080BD34
:1047D0001408002080B586B000AFF860B9607A6038
:1047E0003B6000237B61FB68BA685A60FB68FA682B
:1047F0001A61BA687B689A4212D87A683B68D21A02
:10480000FB689B699A4202D301237B611BE0104B3A
:104810001A68FB680433101C191CFEF749FB12E0F0
:104820007A683B689A4206D2BA683B689A4202D3D9
:1048300001237B6107E0074B1A68FB680433101CF7
:10484000191CFEF735FB7B69181CBD4606B080BD00
:10485000080800200408002080B58CB002AFB3E047
:104860000823FB181B68002B11DA0823FB180433FC
:104870007B627B6A002B01D172B6FEE77B6A1A6805
:104880007B6A59687B6A9B68081C191C904708233F
:10489000FB181B68002B00DA96E00823FB189B68C6
:1048A0003B623B6A5B69002B04D03B6A0433181CF3
:1048B000FEF734FB3B1D181CFFF76CFF031CFB616C
:1048C0000823FB181B68092B00D97CE09A00464B93
:1048D000D3181B689F463B6A28229B5C0122134326
:1048E000D9B23B6A282299540823FB185A683B6ABC
:1048F0009B69D1180823FB185B68386AFA69FFF7CF
:1049000069FF031E20D03B6A1B6A3A6A101C984755
:104910003B6A28229B5C1A1C0423134014D00823F2
:10492000FB185A683B6A9B69D218396A00230093C6
:10493000081C00210023FFF715FE031CBB61BB69A7
:10494000002B01D172B6FEE73EE03B6A28229B5C59
:1049500001229343D9B23B6A2822995434E03B6A3E
:1049600028229B5C01221343D9B23B6A2822995426
:104970000823FB185A683B6A9A613B6A9B69002BC3
:1049800001D172B6FEE73B6A9A69FB69D118386AB1
:10499000FA69FB69FFF71EFF16E03B6A28229B5C61
:1049A0001A1C0223134004D13B6A181CFEF724FA98
:1049B00008E03B6A28229B5C01229343D9B23B6A00
:1049C0002822995400E0C046084B1A680823FB18B7
:1049D000101C191C0022FEF70DFD031E00D03FE73E
:1049E000BD460AB080BDC046D4A100100C0800200E
:1049F00080B588B002AF42E02A4B1B68DB681B68B9
:104A00007B61284B1B68DB68DB683B613B690433D7
:104A1000181CFEF783FA3B691B6A3A69101C984719
:104A20003B6928229B5C1A1C0423134027D03B6956
:104A30009A697B69D318FB60FA687B699A420ED940
:104A40003B69FA685A603B693A691A61154B1A6802
:104A50003B690433101C191CFEF72AFA0FE0396970
:104A60007A6900230093081C00210023FFF77AFDD8
:104A7000031CBB60BB68002B01D172B6FEE7094B7B
:104A80001B681B68002BB7D1064B1B687B60064B6D
:104A90001A68044B1A60044B7A681A60BD4606B067
:104AA00080BDC046040800200808002080B500AF83
:104AB000FEF7F8F8144B1B68002B20D1134B181C81
:104AC000FEF7ACF9124B181CFEF7A8F9114B0F4A70
:104AD0001A60114B0E4A1A60052010210022FEF7C1
:104AE00099FA021C084B1A60074B1B68002B06D072
:104AF000054B1A68094B101C191CFEF767FEFEF7E0
:104B0000E1F8BD4680BDC0460C080020DC0700204F
:104B1000F00700200408002008080020CCA10010A5
:104B200080B582B000AF78607B6819687B681A7BBB
:104B30007B680433081C111C1A1CFCF7E7FA7B681D
:104B400019687B681A7B7B685B7B081C111C1A1C2C
:104B5000FCF792FD0023181CBD4602B080BDC04684
:104B600080B500AFBD4680BD80B584B000AF786031
:104B70000F23FB1800221A700E23FB1800221A7054
:104B80000D23FB1800221A700C23FB1800221A7048
:104B90000B23FB1800221A707B681B7801225340FC
:104BA000DBB2002B1BD00E23FA180D23FB18127852
:104BB0001B781343DAB20C23FB181B781343D9B2CA
:104BC0000F23FB180B22BA1812780A431A700F230E
:104BD000FB181B78002B02D17B6801221A700F236F
:104BE000FB181B78181CBD4604B080BD90B585B07D
:104BF00000AF3B1D044A13CA13C33B1D181CFCF72E
:104C00005DFBBD4605B090BD3CA2001090B583B0E1
:104C100000AFFB1D00221A70FC1D424B181CFFF751
:104C2000A3FF031C2370FB1D1B78002B06D1FC1D6A
:104C30003D4B181CFDF7CAFC031C2370FB1D1B78A1
:104C4000002B06D1FC1D394B181CFDF74DFF031C32
:104C50002370FB1D1B78002B06D1FC1D344B181C48
:104C6000FFF75EFF031C2370FB1D1B78002B06D192
:104C7000FC1D304B181CFDF779FE031C2370FB1D37
:104C80001B78002B06D1FC1D2B4B181CFFF748FF8F
:104C9000031C2370FB1D1B78002B06D1FC1D274B2A
:104CA000181CFDF7F5F8031C2370FB1D1B78002B67
:104CB00006D1FC1D224B181CFDF758FE031C237067
:104CC000FB1D1B78002B06D1FC1D1E4B181CFDF78D
:104CD0007DFC031C2370FB1D1B78002B06D1FC1DE3
:104CE000194B181CFDF700FF031C2370FB1D1B78DC
:104CF000002B06D1FC1D154B181CFFF711FF031CE0
:104D00002370FB1D1B78002B06D1FC1D104B181CBB
:104D1000FFF706FF031C2370FB1D1B78181CBD4604
:104D200003B090BD180800202C050020A4A100109D
:104D3000FCA100107C0500200CA200102005002022
:104D4000B005002054050020A8A100101CA20010EE
:104D50002CA2001080B582B000AF78600A1CFB1C4A
:104D60001A70FB1C1B7801229A407B685A60BD4672
:104D700002B080BD80B582B000AF78600A1CFB1C19
:104D80001A70FB1C1B78802252029A407B685A6082
:104D9000BD4602B080BDC04680B582B000AF78602D
:104DA0000A1CFB1C1A707B685A6AFB1C1B78DA40D1
:104DB000131C01221340181CBD4602B080BDC04622
:104DC00080B582B000AF78607B681A687B681B7B17
:104DD000101C191CFFF7BEFFBD4602B080BDC046C7
:104DE00080B582B000AF78607B681A687B681B7BF7
:104DF000101C191CFFF7BEFFBD4602B080BDC046A7
:104E000080B582B000AF78607B681A687B681B7BD6
:104E1000101C191CFFF7C0FF031C181CBD4602B074
:104E200080BDC04690B585B002AF05F001F8FC1D0D
:104E3000FFF7ECFE031C2370FB1D1B78002B04D036
:104E40001D4B181C01F022F9FEE71C4B181C01F049
:104E50001DF91B4B181CFDF7DDFB1A4B181CFDF749
:104E6000D9FB012000210322FEF7D4F8021C164BC7
:104E70001A60052001210022FEF7CCF8021C134B1A
:104E80001A601349134A0223009300230193081C5C
:104E9000111CC8220023FEF74DFD0F490F4A0123C4
:104EA000009300230193081C111CC8220023FEF765
:104EB00041FDFEF7ADFEFEE748A2001068A200101B
:104EC0002C05002054050020140900202009002092
:104ED000E14E001070A200102D4F001080A20010B3
:104EE00080B584B000AF78600E4B00221A600D4B85
:104EF0001B68FB6000F086F800F0EAF800F04EF95D
:104F0000084B1B68BB60BA68FB68D31AFA22920090
:104F10005343054A101C191C01F03CF86420FEF7AD
:104F200053FEE4E72409002094A2001090B59DB040
:104F300000AF78602D4B19686F23FA1801235B428C
:104F4000081C111C1A1CFEF755FA031E012B4CD12C
:104F50006F23FB181B781A1C254B181C111C01F021
:104F600019F86F23FB181B781A1C05239B1A0822BB
:104F7000B918204A081C111C1A1C01F0CBF8082390
:104F8000FB18181C01F0E8F8041C1B4A0823FB1846
:104F9000101C191C221CFCF793FF6F23FB181B78B5
:104FA000052B22D10823FB18144A13CA13C3116816
:104FB00019609188998092799A71114A0823FB1897
:104FC000101C191C00F0E6FF0A20FEF7FDFD082367
:104FD000FB18181C01F0C0F8041C074A0823FB1832
:104FE000101C191C221CFCF76BFFA3E720090020F2
:104FF000B8A20010D0A2001020050020E4A20010EA
:10500000F8A2001080B582B000AF00237B600023BF
:105010003B60284B00221A60C046274B181CFFF744
:10502000EFFE031EF9D0234B1B687B60C046224B6A
:10503000181CFFF7E5FE031E012B05D11D4B1A6856
:105040007B68D31A022BF2D91A4B1B683B603A6873
:105050007B68D31A194A101C191C00F09BFF3A6890
:105060007B68D31A012B1CD8154B1B68012B18D950
:10507000144B181C01F00AF8134B1B78042B10D8A2
:10508000114B1B780133DAB20F4B1A700F4B1968B2
:105090000D4A01235B42081C111C1A1C0023FEF759
:1050A0002DF83A687B68D21A054B1A60BD4602B0EB
:1050B00080BDC0461C0900200CA2001010A30010E7
:1050C000FC05002024A300101C080020200900205B
:1050D00080B582B000AF00237B6000233B60284B8B
:1050E00000221A60C046274B181CFFF789FE031EDA
:1050F000F9D0234B1B687B60C046224B181CFFF77E
:105100007FFE031E012B05D11D4B1A687B68D31A45
:10511000022BF2D91A4B1B683B603A687B68D31AA2
:10512000194A101C191C00F035FF3A687B68D31A25
:10513000012B1CD8154B1B68012B18D9144B181CBC
:1051400000F0A4FF134B1B78002B10D0114B1B78E1
:10515000013BDAB20F4B1A700F4B19680D4A01234D
:105160005B42081C111C1A1C0023FDF7C7FF3A689C
:105170007B68D21A054B1A60BD4602B080BDC0469E
:1051800018090020FCA1001038A300100006002020
:105190004CA300101C0800202009002080B500AF9F
:1051A0000B4B1B78052B08D10A4B181CFFF708FE88
:1051B000094B181CFFF714FE07E0074B181CFFF7FC
:1051C000FFFD044B181CFFF70BFEBD4680BDC0461B
:1051D0001C0800202CA200101CA2001080B500AFFB
:1051E000054B1B685A1C044B1A60044B1B685A1C65
:1051F000024B1A60BD4680BD1C0900202409002016
:1052000080B500AF034B1B685A1C024B1A60BD46A9
:1052100080BDC04618090020002243088B4274D389
:1052200003098B425FD3030A8B4244D3030B8B42A7
:1052300028D3030C8B420DD3FF22090212BA030CB0
:105240008B4202D31212090265D0030B8B4219D391
:1052500000E0090AC30B8B4201D3CB03C01A5241B1
:10526000830B8B4201D38B03C01A5241430B8B42F9
:1052700001D34B03C01A5241030B8B4201D30B03E2
:10528000C01A5241C30A8B4201D3CB02C01A524109
:10529000830A8B4201D38B02C01A5241430A8B42CC
:1052A00001D34B02C01A5241030A8B4201D30B02B5
:1052B000C01A5241CDD2C3098B4201D3CB01C01ACF
:1052C000524183098B4201D38B01C01A52414309D9
:1052D0008B4201D34B01C01A524103098B4201D3C7
:1052E0000B01C01A5241C3088B4201D3CB00C01A34
:1052F000524183088B4201D38B00C01A52414308AC
:105300008B4201D34B00C01A5241411A00D20146D0
:10531000524110467047FFE701B5002000F0FCF84D
:1053200002BDC0460029F7D003B5FFF775FF0EBCDC
:105330004243891A1847C04603460B437FD40022D4
:1053400043088B4274D303098B425FD3030A8B4219
:1053500044D3030B8B4228D3030C8B420DD3FF2283
:10536000090212BA030C8B4202D31212090265D051
:10537000030B8B4219D300E0090AC30B8B4201D304
:10538000CB03C01A5241830B8B4201D38B03C01A4B
:105390005241430B8B4201D34B03C01A5241030BC2
:1053A0008B4201D30B03C01A5241C30A8B4201D373
:1053B000CB02C01A5241830A8B4201D38B02C01A1E
:1053C0005241430A8B4201D34B02C01A5241030A95
:1053D0008B4201D30B02C01A5241CDD2C3098B427A
:1053E00001D3CB01C01A524183098B4201D38B01F7
:1053F000C01A524143098B4201D34B01C01A52419A
:1054000003098B4201D30B01C01A5241C3088B42DE
:1054100001D3CB00C01A524183088B4201D38B00C9
:10542000C01A524143088B4201D34B00C01A52416B
:10543000411A00D201465241104670475DE0CA0F42
:1054400000D04942031000D34042534000229C4602
:1054500003098B422DD3030A8B4212D3FC2289010C
:1054600012BA030A8B420CD3890192118B4208D3E2
:10547000890192118B4204D389013AD0921100E044
:105480008909C3098B4201D3CB01C01A5241830958
:105490008B4201D38B01C01A524143098B4201D385
:1054A0004B01C01A524103098B4201D30B01C01AB0
:1054B0005241C3088B4201D3CB00C01A524183082A
:1054C0008B4201D38B00C01A5241D9D243088B4280
:1054D00001D34B00C01A5241411A00D20146634623
:1054E00052415B10104601D34042002B00D5494287
:1054F000704763465B1000D3404201B5002000F0C6
:105500000BF802BD0029F8D003B5FFF715FF0EBC5C
:105510004243891A1847C0467047C0461C210123E0
:105520001B04984201D3000C10391B0A984201D386
:10553000000A08391B09984201D30009043902A264
:10554000105C40187047C0460403020201010101CB
:105550000000000000000000014B18687047C046C2
:105560006406002008B5034B011C186800F066F8BB
:1055700008BDC0466406002008B5034B011C18682E
:1055800000F016F808BDC04664060020002310B5E0
:10559000934203D0CC5CC4540133F9E710BD031C23
:1055A0008218934202D019700133FAE77047000065
:1055B00030B500293ED004390B68002B00DAC91839
:1055C0001D4A1368141C002B02D14B60116031E09E
:1055D00099420DD208680A189A4203D11368C31879
:1055E0000B6053684B60216024E08A4203D8131C8F
:1055F0005A68002AF9D11D685C198C420BD10968E0
:10560000691858181960904214D110685268091826
:1056100019605A600EE08C4202D90C23036009E045
:1056200008680C18944203D1146852680019086085
:105630004A60596030BDC04624080020032370B57D
:10564000CC1C9C430834051C0C2C01D20C2405E016
:10565000002C03DA0C2300202B6042E08C42F9D3AB
:10566000204A1368101C191C002913D00A68121B49
:105670000DD40B2A02D90A608B181FE08B4202D18D
:105680005A6802601BE04A685A600B1C17E00B1C4A
:105690004968E9E7144E3368002B03D1281C00F059
:1056A00027FD3060281C211C00F022FD031C421C39
:1056B000D0D00322C61C964386420AD11C60181C17
:1056C00007210B301A1D8843821A0AD05142995083
:1056D00007E0311A281C00F00BFD431CBAD0331C24
:1056E000ECE770BD2408002020080020F0B58BB046
:1056F000141C1D1E129906DA802424062B191D1C69
:10570000141C2D2300E000230B702023149E032281
:105710009E43462E07D0331C453B59424B411099BE
:10572000013ACB181093109B00920193139B221CFB
:10573000029308AB039309AB04932B1C00F068FEA3
:10574000071C472E02D1119BDB072CD5109BFB18A1
:105750000793462E14D13B78302B0CD1201C291CEA
:105760000022002302F0EAFC002804D10123109A51
:105770009B1A139A1360139B079A1B68D3180793FD
:10578000201C291C0022002302F0D8FC002801D094
:10579000079B0993099B079A934204D25A1C0992CA
:1057A00030221A70F6E7381C099B159ADB1B136030
:1057B0000BB0F0BDF7B52B23071C0C1C0270861C28
:1057C000002901DA2D234C427B70092C1CDD6B462D
:1057D000DD1D201C0A21FFF795FE013D30312970A7
:1057E000201C0A21FFF7A8FD041E092CF1DC013D55
:1057F00030342C706B460733301CAB4209D92B7800
:10580000013533700136F5E73023E4183370B01CEE
:105810007470C01BFEBD0000F0B593B00C1C089264
:10582000189E0993051C01F07DFD0368181C0B935D
:1058300000F092FC00230722109333680C9007338A
:1058400093431A1C186859680832277E3260A06496
:10585000E16400F025FC012818D1A06CE16C002265
:10586000002302F071FC002803D0231C2D224333B7
:105870001A70B74B0A93472F01D9B64B0A930323EB
:105880002268236101339A43226012E0A06CE16C2C
:1058900000F006FC266800280DD1AF4B0A93472F75
:1058A00001D9AE4B0A930323311C23610133994381
:1058B0002160002680E080216068C900431C01D17E
:1058C000062309E0A26CE36C672F01D0472F04D1B7
:1058D000002800D0C1E10123636063683143009375
:1058E000232321600191002106AA9B1802930FAB8C
:1058F000039310AB05930497A26CE36C0691281CEC
:10590000FFF7F4FE20233A1C0A909A43472A07D156
:105910000F9BDA1C02DB626893422DDD023FFFB26F
:105920000F99652F12D8201C01393A1C50300F9165
:10593000FFF740FF109A061C83182361012A02DC3E
:105940002268D2072ED5013323612BE0662F14D1B4
:105950006368002908DD2161002B02D12268D2078B
:105960001DD50133CB1811E0002B03D10122216892
:10597000114213D09A1C11E067270F9B10988342A5
:1059800006DB22682361D20709D50133236106E0D3
:105990000122002B01DC0221CA1A82182261002692
:1059A0000F9BA365232306AA9B181B78002B03D00B
:1059B000231C2D2243331A70099B281C0093211CA1
:1059C000089B11AA00F060F9431C02D1012040425B
:1059D00057E12268530504D4281C08990A9A2369C0
:1059E00017E1652F00D8D5E0A06CE16C0022002300
:1059F00002F0A4FB00282BD00123281C0899584A48
:105A0000099EB047431CE1D00F9B109A934207DBDD
:105A10002368DB0704D423689B0700D51BE114E14E
:105A2000099E281C08990B9A0C9BB0470026431C22
:105A3000CCD0109B013B9E42EDDA221C0123281C96
:105A400008991A32099FB847431CBFD00136F0E7C6
:105A50000F9B002B2BDC0123281C0899404A099E30
:105A6000B047431CB2D00F9B002B05D1109B002BDD
:105A700002D12368DB07CED5099E281C08990B9A12
:105A80000C9BB0470026431CA0D00F9B281C5B42F8
:105A900008999E4208DA221C01231A32099FB8474E
:105AA000431C93D00136F0E70A9A109BB1E0109B9B
:105AB000A66D9E4200DD1E1C002E01DC002314E0BA
:105AC000331C281C08990A9A099FB847431CF5D132
:105AD0007CE7221C0123281C08991A32099FB84729
:105AE000431C00D172E70D9B01330D93F343A26D6C
:105AF000DB170D993340D31A9942EADB0A9B9E18B3
:105B00000F9B109A93420EDB2368DB070BD4109B8C
:105B10000A9AD7180F9ABF1B9B1A9F4200DD1F1CC1
:105B2000002F09DC11E00C9B281C08990B9A099F97
:105B3000B847431CEBD149E7321C3B1C281C089991
:105B4000099EB047431C00D140E7002316E0C04641
:105B500068A300106CA3001070A3001074A30010C1
:105B600078A30010221C0123281C08991A32099ED0
:105B7000B047431C00D129E70A9B01330A930F9ACF
:105B8000109B9A1AFB43DB173B40D31A0A9A9A429E
:105B9000E8DB40E7109B281C0899012B02DC01235D
:105BA0001A423CD001230A9A099FB847431C00D1EE
:105BB0000CE70C9B281C08990B9A099FB847431CBB
:105BC00000D103E7A06CE16C0023002202F0B6FADA
:105BD0000023002812D10A9A109B0132013B281C95
:105BE00008991DE0221C0123281C08991A32099FDC
:105BF000B847431C00D1E9E60A9B01330A93109B86
:105C00000A9A013B9A42EDDB221C281C331C08999E
:105C10005032099EB047431C00D0FCE6D6E60A9AF3
:105C2000099FB847431CEFD1D0E6221C0123281C52
:105C300008991932099FB847431C00D1C6E60136BE
:105C4000E368119A9B1A9E42EFDB119BE068984231
:105C500017DA181C15E00026F2E7314321600191A4
:105C60002321009006A8091802910FA9039110A9F9
:105C70000591002104970691281CFFF737FD0A9033
:105C800046E613B0F0BDC046F7B5171C01930A698C
:105C90008B6800900C1C934200DA131C221C3B60A2
:105CA00043321278002A01D001333B6023689B06FF
:105CB00002D53B6802333B60062523681D401ED099
:105CC000231C43331B785A1E9341226892061CD52D
:105CD0003020E1184031C870211C5A1C4531097828
:105CE000A21840320233D1700FE0221C0123009829
:105CF00001991932089EB047431C0ED00135E36864
:105D00003A689B1A9D42F0DBDAE7221C0098019961
:105D10004332089DA847431C02D10120404220E0A5
:105D200006232068E1683A6803400025042B03D16C
:105D30008D1AEB43DB171D40A3682269934201DDF6
:105D40009B1AED180027AF420ADA221C01230098A3
:105D500001991A32089EB047431CDED00137F2E7A2
:105D60000020FEBDF0B58BB006920A1C43320793AB
:105D7000059004920A7E0C1C109B6E2A00D1A8E0AC
:105D800011D8632A22D009D8002A00D1B2E0582ABB
:105D900000D0C2E045310A707C4A4FE0642A1DD031
:105DA000692A1BD0B9E0732A00D1A7E009D86F2A6D
:105DB00029D0702A00D0B0E0202209680A4322606E
:105DC00037E0752A1FD0782A33D0A6E00D1C1A6858
:105DD0004235111D196013682B70A1E021681A6803
:105DE000080603D5111D1960166805E04906F9D5A6
:105DF000111D19600023D65E002E3BDA2D23049A74
:105E00007642137036E021681A68080603D5111D22
:105E10001960166805E04906F9D5111D1960166864
:105E2000B6B25A4B227E03930A276F2A1DD1082748
:105E30001BE0221C782145321170554A19680392E3
:105E4000081D226818600E68100602D4500600D59E
:105E5000B6B2D30702D520231A4322601027002EA2
:105E600003D1202322689A432260231C002243335B
:105E70001A7002E00A27454B03936368A360002B66
:105E800003DB0422216891432160002E02D1049D8E
:105E9000002B0ED0049D301C391CFFF743FA039BE6
:105EA000013D5B5C301C2B70391CFFF7B5F9061EF9
:105EB000F1D1082F09D12368DB0706D56368226971
:105EC000934202DC3023013D2B70049B5B1B23615A
:105ED0002BE009681A68080607D4490605D5111D84
:105EE00019601368A28A1A8004E0111D19601368F2
:105EF00062691A600023049D236116E01A68111D6F
:105F0000196015680021281C626801F067FA0028F2
:105F100001D0401B6060636803E0251C42352A7095
:105F2000012323610023049A1370079B05980093B3
:105F3000211C069B09AAFFF7A7FE431C02D10120E2
:105F4000404221E02A1C236905980699079DA8472D
:105F5000431CF4D023689B0705D4099BE068984252
:105F600012DA181C10E00025E368099A9B1A9D427A
:105F7000F3DA221C0123059806991932079EB047CF
:105F8000431CDCD00135EFE70BB0F0BD7AA3001065
:105F90008BA300100FB40B4B13B51C68002C05D05D
:105FA000A369002B02D1201C01F02AF905AB201CAB
:105FB000A168049A019301F093FE16BC08BC04B0DA
:105FC0001847C0466406002070B5051C0E1C00284A
:105FD00004D08369002B01D101F012F9AC68A389C8
:105FE0001B0702D52369002B19D1281C211C00F0A6
:105FF00013F9002813D00120404245E03178002BEE
:106000001BDAA269934211DA221C281C00F0ACF8BA
:10601000013042424241D0B20028ECD10136A3689F
:106020003278013BA360002AE8D10CE023681970A4
:10603000236819780A2903D1E6E7236819702368D1
:1060400001332360EAE7002B17DAA269934208DBE9
:106050000A2322681370236819780A2911D1281C91
:1060600001E0281C0A21221C00F07EF80130424287
:106070004241D0B2002806D0BDE70A23226813703F
:106080002368013323600A2070BD000008B5034B6C
:10609000011C1868FFF798FF08BDC0466406002081
:1060A00030B50C1C0223044317D080242406A142DF
:1060B00001D1002811D00A4B49004908094ACC18DF
:1060C0000423944209D9084A013B914205D9074A61
:1060D0000023914201D143424341181C30BDC046C8
:1060E0000000F0FFFFFFDF7FFFFF0F000000F07FE9
:1060F00038B50023064C051C081C2360FBF7DAFDAD
:10610000431C03D12368002B00D02B6038BDC04650
:10611000280900200EB410B59DB002A902900861B4
:106120000B48822488604861012040421FABC8812F
:10613000084804CBA400006801938C8101F0B2FCF4
:106140000023029A13701DB010BC08BC03B018479E
:10615000FFFFFF7F640600200023C25C0133002A9A
:10616000FBD1581E7047000070B5051C0E1C141C96
:10617000002804D08369002B01D101F041F8234BA2
:106180009C4201D16C6808E0214B9C4201D1AC6873
:1061900003E0204B9C4200D1EC68A369A360A38973
:1061A0001B070AD52369002B07D023682269F6B2A2
:1061B000981A636998420FDB08E0281C211C00F044
:1061C0002BF80028F1D0012040421DE0281C211CA2
:1061D00000F0A8FF0028F6D1A3680130013BA360BE
:1061E00023685A1C22601E706369984205D0A389F7
:1061F000301CDB0708D50A2E06D1281C211C00F014
:1062000091FF0028DFD1301C70BDC046ACA3001048
:10621000CCA30010ECA30010354B70B51D68061C14
:106220000C1C002D05D0AB69002B02D1281C00F0FE
:10623000E7FF304B9C4201D16C6808E02E4B9C423A
:1062400001D1AC6803E02D4B9C4200D1EC68A389DE
:106250009AB2110723D4D10607D409220120326053
:1062600037321343A381404240E0530713D5616B9B
:10627000002908D0231C4433994202D0301CFFF778
:1062800097F9002363632422A3899343A381002306
:106290006360236923600822A3891343A3812369D0
:1062A000002B0BD1A023A2899B00134080229200D7
:1062B000934203D0301C211C01F038F80123A2893D
:1062C000134005D00023A36063695B42A36103E030
:1062D000910700D46369A36000202369834205D13C
:1062E000130603D540231A43A281013870BDC0466E
:1062F00064060020ACA30010CCA30010ECA3001097
:10630000F0B503690C6989B00026A3427CDB0B1C45
:10631000013C1433A50003935B190493031C14334D
:1063200001935D19049B07911B680290591C286812
:106330000593FEF771FF071EB74235D0039B019806
:106340009C460596634604CB91B27943120C7A437E
:1063500071180E0C9C46B318069302881E0C059B00
:1063600089B2D2180368521A190C6B461B8BCB1AD0
:1063700011145B18191492B21B041A43049B059163
:1063800004C06345DED22B68002B0DD1231C019A7B
:10639000043D954203D8029A1C1C136104E02A684C
:1063A000002AF8D1013BF2E70298079901F032FA8E
:1063B000002828DB00200199039A013720CA0B88A6
:1063C0001818ABB2C31A08682D0C000C451B1E141C
:1063D000AD1928149BB22D042B4308C1049B934292
:1063E000ECD2019AA300D3181A68002A0BD1019AA3
:1063F000043B934202D8029B1C6104E01A68002A05
:10640000F9D1013CF3E73E1C301C09B0F0BD00009F
:10641000F0B5161C1F1C446A9BB00890239D06967D
:106420000797002C08D11020FFF79CF8089B5862B2
:10643000446084600460C460089B5B6A196800293A
:106440000BD05A68012393404A608B60089801F092
:1064500008F80022089B5B6A1A60079B002B05DA8C
:1064600001232B607B005B08079301E000232B6076
:10647000079CC64B221C17931A409A4219D1C44B51
:10648000229A1360069AC34B002A02D1240300D13A
:10649000C14B249A181C002A01D100F0B6FDD9780E
:1064A000DA1C002900D005322499181C0A6000F07B
:1064B000ACFD069E079F0022301C391C002301F012
:1064C0003DFE051E0ED00123229A1360B34B249A81
:1064D000181C002A01D100F098FDB14A24990A60E5
:1064E00000F093FD19AB009318AB01930898321C90
:1064F0003B1C01F015FA61000A90490D09D03803E0
:10650000A84C000B0443A848321C231C0E181695F7
:106510001CE0189B199A9E18A44B9E4209DBA44BC1
:10652000F018069BC340181CA24B9B1B9C402043A9
:1065300004E0A148069B801B8340181C03F018FC54
:106540009E4C021C0B190121013E1691101C191CB6
:1065500000229B4B03F020F89A4A9B4B02F082FDED
:106560009A4A9B4B01F018FE041C301C0D1C03F0D2
:10657000C3FB984A984B02F075FD021C0B1C201CB3
:10658000291C01F009FE041C0D1C03F07FFB291CD3
:1065900003900022201C002301F0D6FD00280DD01E
:1065A000039803F0A9FB021C0B1C201C291C01F002
:1065B000C5FD43424341039AD31A03930123139326
:1065C000039B162B11D8854ADB00D318186859682D
:1065D000069A079B01F0CCFD002805D0039B013BE8
:1065E00003930023139300E01390189B9E1B00233A
:1065F0000D93013E0E9604D50E9B5B420D93002336
:106600000E93039B002B08DB039A0E9B9446634476
:106610000E93002312920F9307E00D9B039A9B1A8F
:106620000D9353420F9300231293209B0125092BB6
:1066300027D8052B02DD0025043B2093209B981EC4
:10664000032823D801F060FD020E0410002300E0AF
:1066500001231093219B002B21DC01230B93099331
:106660001A1C1AE0002300E00123039A10939446B9
:10667000219B63440B9301330993002B12DC01230C
:1066800010E0002310952093013B02E001231093BA
:10669000023B00220B9309931333219202E0219BCA
:1066A0000B930993089A546A002262600432111C09
:1066B0001431994204D86168520001316160F6E7F3
:1066C0000898616800F095FE089B20605B6A1B6873
:1066D0000C93099B0E2B00D988E1002D00D185E198
:1066E000069B079C14931594039B002B30DD0F220F
:1066F0003A491340DB00CB185C681B68049305948F
:10670000039B02271D11EB060AD514981599344BEB
:1067100015401A6A5B6A02F067F806900791013724
:106720002F4C002D0DD0EB0708D504980599226851
:10673000636802F097FC0490059101376D100834EE
:10674000EFE706980799049A059B02F04DF849E097
:10675000039B02275D42002D46D0149815990F2304
:106760001E4A2B40DB00D3181A685B6802F07AFCE3
:106770001B4C2D11002D35D0EB0704D52268636822
:10678000013702F06FFC6D100834F3E70000F07F72
:106790000F270000A5A300109CA3001078A30010F1
:1067A00079A300100000F03F01FCFFFFEFFBFFFFAB
:1067B000120400000EFCFFFFEEFBFFFF000010FEC6
:1067C0000000F83F61436F63A787D23FB3C8608B77
:1067D000288AC63FFB799F501344D33F18A400106A
:1067E000E0A4001006900791139B002B1ED0069C7E
:1067F000079D0022201C291CCE4B01F0A5FC00287F
:1068000014D0099B002B11D00B9B002B00DCE9E07E
:10681000039B291C013B1193201C0022C64B02F054
:1068200021FC0137069007910B9D02E0039B099D17
:106830001193381C069B079C0493059403F05CFAA3
:10684000049A059B02F00EFC0022BC4B01F0A4FC54
:1068500006900791069E079F079BB94A9C18002D3A
:106860001CD1049805990022B64B02F095FE321C0B
:10687000231C0490059101F07BFC002800D063E20A
:1068800004980599321CB04E079CB4466444231CFE
:1068900001F05AFC002800D04CE2A3E0AB4A6B1E8A
:1068A0001099DB00D31800294ED01A685B680020CD
:1068B000A74901F099FF321C231C02F06DFE049ED3
:1068C000059F0C9B069007910493391C301C03F024
:1068D000DDF9041C03F010FA021C0B1C301C391CDF
:1068E00002F05AFE049B303401330493013B1C70C8
:1068F000069A079B061C0F1C01F026FC002800D0FE
:1069000061E3321C3B1C00208A4902F045FE069AD6
:10691000079B01F019FC002800D0CDE0049B0C9AE5
:106920009B1AAB425EDA069807990022824B02F06E
:1069300099FB0022069007917F4B301C391C02F016
:1069400091FB061C0F1CC0E718685968321C231CF9
:1069500002F088FB049E059F0C9C0690079163192A
:106960000493391C301C03F091F9051C03F0C4F9A1
:106970000B1C021C391C301C02F00EFE3035049B2F
:1069800025700134061C0F1CA34224D10022069856
:1069900007996F4B01F000FC021C0B1C301C391CCA
:1069A00001F0E6FB002800D086E0069A079B002055
:1069B000674902F0F1FD021C0B1C301C391C01F070
:1069C000C3FB00280ED0049B013B1A78302A00D06C
:1069D000F9E20493F7E70022574B02F043FB061C51
:1069E0000F1CBEE7149B159C06930794199B002B64
:1069F00000DA86E0039A0E2A00DD82E0D300534AD3
:106A0000D3181E685F68219B002B14DA099B002BAA
:106A100011DC00D090E1301C391C0022494B02F0FF
:106A200021FB069A079B01F0ADFB099F3E1C002845
:106A300000D083E18CE10C9B069C079D0493321CE3
:106A40003B1C201C291C01F0CFFE03F01FF906900F
:106A500003F052F9321C3B1C02F004FB021C0B1C1D
:106A6000201C291C02F098FD0B1C0499021C06989E
:106A7000013104913030013908700C980499091AD9
:106A8000099881422ED1101C191C01F085FB321C83
:106A90003B1C041C0D1C01F06BFB002810D1201CBA
:106AA000291C321C3B1C01F049FB002800D18CE260
:106AB000069BDB0704D488E2119B039300E0049358
:106AC000049B013B1A78392A08D10C9A9342F6D1DB
:106AD000039B0133039330231370131C1A78013284
